:100000000C94A4050C94CC050C94CC050C94CC0554
:100010000C94CC050C94CC050C94CC050C94CC051C
:100020000C94CC050C94CC050C94CC050C94CC050C
:100030000C94CC050C94CC050C94CC050C94CC05FC
:100040000C9444190C94CC050C94CC050C94CC0560
:100050000C94CC050C94CC050C94CC050C94CC05DC
:100060000C948E190C94CC056D656E752E2E2E0099
:100070004163636573616E646F0047697261723DCD
:1000800063616D626961722020436C69633D4F4B0F
:10009000001F1C1F1E1F1E1F1F1E1F1E0000000012
:1000A000003E5B4F5B3E3E6B4F6B3E1C3E7C3E1CFE
:1000B000183C7E3C181C577D571C1C5E7F5E1C0044
:1000C000183C1800FFE7C3E7FF0018241800FFE7FB
:1000D000DBE7FF30483A060E2629792926407F05BE
:1000E0000507407F05253F5A3CE73C5A7F3E1C1CD4
:1000F00008081C1C3E7F14227F22145F5F005F5F94
:1001000006097F017F006689956A6060606060947F
:10011000A2FFA29408047E040810207E2010080884
:100120002A1C08081C2A08081E101010100C1E0C8F
:100130001E0C30383E3830060E3E0E060000000021
:100140000000005F00000007000700147F147F1408
:10015000242A7F2A1223130864623649562050004D
:1001600008070300001C2241000041221C002A1C39
:100170007F1C2A08083E0808008070300008080824
:100180000808000060600020100804023E51494544
:100190003E00427F400072494949462141494D3362
:1001A0001814127F1027454545393C4A49493141C9
:1001B000211109073649494936464949291E000097
:1001C00014000000403400000008142241141414EC
:1001D0001414004122140802015909063E415D59D8
:1001E0004E7C1211127C7F494949363E41414122E1
:1001F0007F4141413E7F494949417F090909013E0B
:10020000414151737F0808087F00417F4100204031
:10021000413F017F081422417F404040407F021C43
:10022000027F7F0408107F3E4141413E7F0909095A
:10023000063E4151215E7F09192946264949493226
:1002400003017F01033F4040403F1F2040201F3FEC
:100250004038403F63140814630304780403615971
:10026000494D43007F4141410204081020004141B3
:10027000417F04020102044040404040000307085F
:100280000020545478407F2844443838444444285B
:10029000384444287F385454541800087E09021802
:1002A000A4A49C787F0804047800447D400020408A
:1002B000403D007F1028440000417F40007C0478CE
:1002C00004787C080404783844444438FC18242416
:1002D0001818242418FC7C08040408485454542496
:1002E00004043F44243C4040207C1C2040201C3C13
:1002F0004030403C44281028444C9090907C44640A
:10030000544C44000836410000007700000041369C
:10031000080002010204023C2623263C1EA1A16122
:10032000123A4040207A3854545559215555794154
:100330002254547842215554784020545579400C29
:100340001E5272123955555559395454545939550C
:100350005454580000457C410002457D420001454F
:100360007C407D1211127DF0282528F07C545545E3
:10037000002054547C547C0A097F4932494949324F
:100380003A4444443A324A4848303A4141217A3A60
:1003900042402078009DA0A07D3D4242423D3D402C
:1003A00040403D3C24FF2424487E4943662B2FFCDB
:1003B0002F2BFF0929F620C0887E09032054547989
:1003C000410000447D413048484A32384040227A5A
:1003D000007A0A0A727D0D19317D2629292F2826D7
:1003E0002929292630484D402038080808080808DF
:1003F0000808382F10C8ACBA2F102834FA00007B38
:10040000000008142A142222142A1408550055004A
:1004100055AA55AA55AAFF55FF55FF000000FF0039
:10042000101010FF00141414FF001010FF00FF1034
:1004300010F010F0141414FC001414F700FF000066
:10044000FF00FF1414F404FC141417101F10101FE5
:10045000101F1414141F00101010F0000000001FD3
:10046000101010101F10101010F010000000FF10DE
:100470001010101010101010FF10000000FF1400DA
:1004800000FF00FF00001F10170000FC04F414140C
:100490001710171414F404F40000FF00F7141414D8
:1004A00014141414F700F7141414171410101F1058
:1004B0001F141414F4141010F010F000001F101F7B
:1004C0000000001F14000000FC140000F010F010E9
:1004D00010FF10FF141414FF141010101F00000060
:1004E00000F010FFFFFFFFFFF0F0F0F0F0FFFFFF64
:1004F0000000000000FFFF0F0F0F0F0F38444438BB
:1005000044FC4A4A4A347E02020606027E027E0209
:1005100063554941633844443C04407E201E200614
:10052000027E020299A5E7A5991C2A492A1C4C7251
:1005300001724C304A4D4D303048784830BC625AD8
:10054000463D3E494949007E0101017E2A2A2A2A68
:100550002A44445F444440514A444040444A514044
:100560000000FF0103E080FF000008086B6B083605
:1005700012362436060F090F060000181800000076
:100580001010003040FF0101001F01011E00191D65
:100590001712003C3C3C3C00000000000001030737
:1005A0000F1F3F7F0080C0E0F0F8FCFEDB40A4A6F8
:1005B0002EAF2000A1C8D300408DAED580A800008A
:1005C000600000000000000000000000000000E0EB
:1005D0000000000000000000000000000001E0003A
:1005E00000000000000000000000000001F000001A
:1005F000000000000000000000000003F000000008
:100600000000000000000000000007F000000000F3
:1006100000000000000000000007F80000000000DB
:1006200000000000000000000FF800000003C00000
:100630007E000001E0007F0FF800000003C000FE14
:10064000000001E000FFEFF800000003C000FE0022
:100650000001E000FFFFF800000003C000F0000010
:10066000000F007FFE7FC0000003C000F00000000C
:100670000F003FFE7FF83FF1FBCFFCFEF3BC3DEFE8
:10068000E01FFE7FFF7FFBFFDFFEFEFFBC3DEFE0D4
:100690001FC6FFFF7FFBFFDFFEFEFFBC3DEFE00F4D
:1006A000E3C7FE787BC3DE1EF0FFBC3DEF0007FF13
:1006B00087FC787BC3DE1EF0F83C3DEF0001FFFFB6
:1006C000F0007BC3C01EF0F03C3DEF0001F37FE083
:1006D0003FFBC3CFFEF0F03C3DEF0003E33F807FE4
:1006E000FBC3DFFEF0F03C3DEF0007E73C00787B0A
:1006F000C3DE1EF0F03C3DEF0007FFBE00787BC379
:10070000DE1EF0F03C3DEF0007FFFE00787BC3DE0D
:100710001EF0F03C3DEF000FFFFE007FFBFFDFFE11
:10072000F0F03FFDEFE00FFFFF007FFBFFDFFEF08B
:10073000F03FFDEFE00FF9FF003E79F9CF9EF0F0BA
:100740001F3DE7E01FF1FF00000000000000000077
:100750000000001F80FF007FFFFFFFFFFFFFFFFF84
:10076000FFE01C007F007FFFFFFFFEB46D888D1847
:10077000E000001F007FFFFFFFFE95AD7DB577E035
:1007800000000F007FFFFFFFFEA5AD9D8D19E0006B
:100790000006007FFFFFFFFEB5ADEDB57EE0000077
:1007A0000000000180000000000000000000038045
:1007B00000000000000000000007C0000000000072
:1007C0000000000007C00000000000000000000F53
:1007D000C00000000000000000001FE0000000005A
:1007E00000000000001FE00000000000000000000A
:1007F0003FE00000000000000000003FF0000000AB
:100800000000000000007FF0000000000000001F5A
:10081000F87FF0000000000000003FFE7FF00000C5
:1008200000000000003FFF7FF0000000000000001B
:100830001FFFFBE0000000000000000FFFF9FFC0F9
:100840000000000000000FFFF9FFF80000000000AA
:100850000007FFF1FFFF00000000000003FC73FF32
:10086000FF80000000000001FE3FFFFF800000004D
:10087000000000FF1E0FFF000000000000007FFED0
:100880001FFC000000000000003FFFFFF800000018
:10089000000000000FDFFFE0000000000000001F6C
:1008A00019FFC0000000000000003F3CFF000000F6
:1008B00000000000007E7CF8000000000000000046
:1008C0007FFE7C0000000000000000FFFFFC000035
:1008D000000000000000FFFFFE000000000000001C
:1008E00000FFFFFE0000000000000001FFEFFE001F
:1008F00000000000000001FFCFFE0000000000002B
:100900000003FF07FE0000000000000003FC07FEDC
:100910000000000000000003F003FE0000000000E3
:100920000000018000FE0000000000000000000048
:100930007E000000000000000000003E00000000FB
:100940000000000000000C00000000000007800014
:10095000FC000003C0000000078001FC000003C091
:10096000000000078001FC000003C00000000780B9
:1009700001E00000001E000000078001E000000010
:100980001E007FE3F79FF9FDE7787BDFC0FFF7FFED
:10099000BFFDFDFF787BDFC0FFF7FFBFFDFDFF78E8
:1009A0007BDFC0F0F787BC3DE1FF787BDE00F0F72E
:1009B00087BC3DE1F0787BDE0000F787803DE1E019
:1009C000787BDE007FF7879FFDE1E0787BDE00FF2C
:1009D000F787BFFDE1E0787BDE00F0F787BC3DE103
:1009E000E0787BDE00F0F787BC3DE1E0787BDE005D
:1009F000F0F787BC3DE1E0787BDE00FFF7FFBFFD4D
:100A0000E1E07FFBDFC0FFF7FFBFFDE1E07FFBDF41
:100A1000C07CF3F39F3DE1E03E7BCFC000000000CF
:100A200000000000000000FFFFFFFFFFFFFFFFFFCF
:100A3000FFC0FFFFFFFFFD68DB111A31C0FFFFFFA2
:100A4000FFFD2B5AFB6AEFC0FFFFFFFFFD4B5B3B37
:100A50001A33C0FFFFFFFFFD6B5BDB6AFDC0313265
:100A60003A30353A35350041707220323320323019
:100A700032360053696E205254432100496E696337
:100A800069616E646F2E2E2E002020433A00443A96
:100A900000436F6E74726F6C204D61796100636FFB
:100AA0006D65722100486F7261206465004D617947
:100AB0006120636F6D696F20686163653A0043650B
:100AC0006E610043656E61004465736179756E6F98
:100AD000004465736179756E6F0052656C6F6A00D2
:100AE00052656C6F6A0000000000240027002A0095
:100AF00000000000250028002B000000000023005B
:100B0000260029000404040404040404020202026E
:100B100002020303030303030102040810204080C0
:100B2000010204081020010204081020000000083F
:100B300000020100000304070000000000000000A4
:100B40002200FF21BC1AF12311241FBECFEFD8E0F1
:100B5000DEBFCDBF22E0A8E7B1E001C01D92A63BF9
:100B6000B207E1F711E0A0E0B1E0EEE7FBE402C07C
:100B700005900D92A837B107D9F715E0C3EAD5E083
:100B800004C02197FE010E947B24C23AD107C9F715
:100B90000E94171B0C94B2250C9400000895089530
:100BA0000895833081F028F4813099F08230A9F0E3
:100BB00008958730A9F08830C9F08430B1F480916D
:100BC00080008F7D03C0809180008F7780938000AC
:100BD000089584B58F7784BD089584B58F7DFBCF4C
:100BE0008091B0008F778093B00008958091B0001D
:100BF0008F7DF9CFCF93DF93282F30E0F901E45DAB
:100C0000F44F8491F901E85EF44FD491F901EC5F5F
:100C1000F44FC491CC23A1F081110E94D105EC2F97
:100C2000F0E0EE0FFF1FE650F54FA591B491EC9167
:100C3000ED2381E090E009F480E0DF91CF91089509
:100C400080E090E0FACF1F93CF93DF93282F30E01E
:100C5000F901E45DF44F8491F901E85EF44FD49119
:100C6000F901EC5FF44FC491CC23A9F0162F811148
:100C70000E94D105EC2FF0E0EE0FFF1FE051F54F81
:100C8000A591B4918FB7F894EC91111108C0D0954B
:100C9000DE23DC938FBFDF91CF911F910895DE2B70
:100CA000F8CFCF93DF9390E0FC01E85EF44F2491FE
:100CB0008C5F944FFC0184918823D1F090E0880FE1
:100CC000991FFC01EA51F54FA591B491FC01E05147
:100CD000F54FC591D491623071F49FB7F8943C916F
:100CE000822F809583238C93E8812E2B28839FBFAE
:100CF000DF91CF9108958FB7F894EC912E2B2C9320
:100D00008FBFF6CF3FB7F8948091EA019091EB0145
:100D1000A091EC01B091ED0126B5A89B05C02F3F35
:100D200019F00196A11DB11D3FBFBA2FA92F982F11
:100D30008827BC01CD01620F711D811D911D42E00C
:100D4000660F771F881F991F4A95D1F708958F92D4
:100D50009F92AF92BF92CF92DF92EF92FF924B01A0
:100D60005C010E9482066B017C010E9482066C1964
:100D70007D098E099F09683E734081059105A8F39E
:100D800021E0821A9108A108B10888EEC80E83E01C
:100D9000D81EE11CF11C81149104A104B10429F7AF
:100DA000FF90EF90DF90CF90BF90AF909F908F908B
:100DB00008952FB7F8946091E6017091E701809152
:100DC000E8019091E9012FBF0895AF92BF92CF92B1
:100DD000DF92EF92FF920F931F93CF93DF936C01FB
:100DE0007B018B01040F151FEB015E01AE18BF08DC
:100DF000C017D10759F06991D601ED91FC9101908E
:100E0000F081E02DC6010995892B79F7C501DF91A5
:100E1000CF911F910F91FF90EF90DF90CF90BF90F7
:100E2000AF900895EF92FF920F931F93CF93DF93AC
:100E3000EC01EC80FD806E157F050CF070C057FF53
:100E400004C0240F351F50E040E08E819F81FA01DD
:100E5000E20FF31F8E179F071CF49C01241B350B18
:100E6000121613060CF05BC0922F842F8695869580
:100E700086958E9DD0018F9DB00D11246A0F7B1F2A
:100E8000AF8DB8A1A60FB71F477049F188E0841B4A
:100E9000482F682F70E0FB01EC55FA4FE4912817BA
:100EA00008F063C0621B71092FEF30E002C0359576
:100EB00027956A95E2F7E2230130110539F0B0F188
:100EC0000230110561F58C91E82702C08C91E82B66
:100ED000EC93941720F12C813D81A20FB31FE92FD1
:100EE000E41BE83078F00230110521F58E2F9C913B
:100EF00090959C932C813D81A20FB31F8850883020
:100F0000B0F7E770EE2359F0F0E0E456FA4FE491C1
:100F100001301105F9F010F10230110519F1DF91DE
:100F2000CF911F910F91FF90EF900895E0958C91D4
:100F3000E823CECF81E00115110509F480E0819509
:100F40009E2F8C932C813D81A20FB31F9850983017
:100F5000C0F7D7CF8C91E82BEC93E1CFE0958C9143
:100F6000E823FACF8C91E827F7CF0130110509F477
:100F7000ADCFE0F20230110509F4A5CFAE0DBF1DD3
:100F8000AECF0F931F93CF93DF9377FF04C0260F4D
:100F9000371F70E060E0DC011496CD91DC91FB011D
:100FA000E20FF31FCE17DF071CF49E01261B370B41
:100FB000121613064CF5FA0157FD3796A3E0F59586
:100FC000E795AA95E1F7EC9FD001ED9FB00DFC9F4E
:100FD000B00D11246A0F7B1FDC015F96ED91FC912F
:100FE000E60FF71F4770552781E090E001C0880F9A
:100FF0004A95EAF7482F0130110559F0A8F02E0F55
:101000003F1F02301105E1F0DF91CF911F910F9149
:1010100008952E0F3F1FE217F307B1F38191DF010F
:101020001197842B8C93F7CF80952E0F3F1FE217DB
:10103000F30751F39191DF01119798239C93F7CF18
:10104000E217F30709F38191DF01119784278C934D
:10105000F7CF0F931F93FA01DC0156964C915697E8
:101060004230E9F04330A1F1413061F514964D91E1
:101070005C91DA01AE1BBF0BFD01E21BF30B77FDA8
:101080000BC0DC0116964D915C916417750724F432
:10109000AB01BF010E94C1071F910F9108951496E3
:1010A0004D915C91DA01A61BB70BBD01615071092E
:1010B000DC0116964D915C91DA01AE1BBF0BFD0170
:1010C000E21BF30B77FDE8CFAF010E941207E4CFDC
:1010D00016964D915C91DA01A61BB70BBD016150CC
:1010E0007109CDCF0F931F93FA01DC0156964C91F5
:1010F00056974230A9F0433091F1413019F51496DA
:101100004D915C91DA01AE1BBF0BFD013197F7FDEC
:1011100004C0AB01BF010E9412071F910F910895F7
:1011200014964D915C91DA01A61BB70BBD01DC0151
:1011300016964D915C91DA01AE1BBF0BFD01319704
:10114000621B730BF7FDE9CFDC0116964D915C91A4
:10115000E417F50714F7AF010E94C107DECF16961A
:101160004D915C91DA01A61BB70BBD01621B730B9D
:10117000CECFFC0177FD64C0808591856817790723
:101180000CF05EC057FD5CC08285938548175907F7
:101190000CF056C086898230B1F0833029F181305D
:1011A00041F484819581841B950BAB01BC01615096
:1011B00071092130310509F108F443C022303105AD
:1011C00009F463C0089584819581DC01A61BB70BE7
:1011D000BD016150710986819781DC01A41BB50BAB
:1011E000AD0141505109E5CF86819781861B970B50
:1011F000BA01AC0141505109DCCFCA0157FD079635
:10120000A3E095958795AA95E1F7A481B5818A9F7A
:1012100090018B9F300D9A9F300D1124620F731F28
:10122000078CF0A1E02DE60FF71F4770552721E04E
:1012300030E001C0220F4A95EAF78081822B80833B
:101240000895CA0157FD079633E0959587953A951D
:10125000E1F7A481B5818A9F90018B9F300D9A9F01
:10126000300D1124620F731F078CF0A1E02DE60FE3
:10127000F71F4770552781E090E001C0880F4A951D
:10128000EAF7809590818923DACFCA0157FD079646
:1012900023E0959587952A95E1F7A481B5818A9FEA
:1012A00090018B9F300D9A9F300D1124620F731F98
:1012B000078CF0A1E02DE60FF71F4770552721E0BE
:1012C00030E001C0220F4A95EAF780818227B7CF2C
:1012D0008EBD00000DB407FEFDCF8EB508950895B4
:1012E000FC016370668B8481958126813781613032
:1012F00039F0633029F091878087338722870895FA
:10130000318720879387828708952F923F924F924B
:101310005F926F927F928F929F92AF92BF92CF9285
:10132000DF92EF92FF920F931F93CF93DF93CDB78E
:10133000DEB76A970FB6F894DEBF0FBECDBF9A8FA7
:10134000898F7A8369834A01D22E18870F833701E8
:10135000BC2CDC0159962D913C915A9721153105F1
:1013600009F015C118968D919C9119976817790706
:101370000CF0D7C11A968D919C91481759070CF023
:10138000D0C14C2C512CB6E0CB9E600D711D1124A8
:101390007C876B87161617060CF0C3C1EA2DF0E0A8
:1013A000FA87E98793E0EE0FFF1F9A95E1F7F88B34
:1013B000EF87CF01840F951F181619060CF0B1C1E5
:1013C000A98DBA8D58968C91811104C0BFEABD15C4
:1013D00008F4D394A98DBA8DED91FC9111970284F4
:1013E000F385E02DCD010995B5E0DB9EC001112408
:1013F000E981FA81FC83EB83312C212C9C0124565A
:101400003F4F388F2F8B4A2D50E05E8B4D8BEF89ED
:10141000F88DE20DF31D44919E828D82D12CC12C5A
:1014200069817A81620D731D7A8B698B842F90E0BC
:101430009C8B8B8BE98DFA8DA081B18140FF82C09E
:10144000F1E0BF126FC0AF126DC01C96ED91FC9120
:101450002F813885A4014C0D5D1D69897A89898D9C
:101460009A8D0995EB89FC89F595E7954E2F5FEFED
:10147000C51AD50A6D817E818D899E89680F791F75
:101480007E836D8398E0C916D10481F6AFEF2A1AE6
:101490003A0AEB81FC81E40DF51DFC83EB83F5E05A
:1014A0002F16310409F0B3CF2F8138852615370563
:1014B000B9F0A98DBA8DED91FC91B1E0BB1257C086
:1014C000AB1255C069817A816B5F7F4F0088F189CB
:1014D000E02D830128E030E0A401898D9A8D0995E3
:1014E000A98DBA8DED91FC9111970688F789E02DB1
:1014F000CD016A960FB6F894DEBF0FBECDBFDF9167
:10150000CF911F910F91FF90EF90DF90CF90BF9000
:10151000AF909F908F907F906F905F904F903F9093
:101520002F9009941E96ED91FC91EF80F884098527
:101530001A8592014D815E816B817C81898D9A8DA6
:10154000099590CF2F8138852615370509F48ACF64
:1015500031E0B31207C0A31205C01C96ED91FC91B7
:10156000930178CF1E96ED91FC917301E0CF6B85CE
:101570007C85641975090684F785E02D73010F8554
:1015800018899201A401898D9A8D0995A9CFF90135
:1015900034969491329745915491D91AB7E0DB9ED5
:1015A000400D511D1124F901259134913C8B2B8B59
:1015B000FA0125903490FA01329674903196349164
:1015C000398B329664903196449041E04C1518F076
:1015D0004A1508F07FC0662D062C000C770B7C8323
:1015E0006B83842D042C000C990B9E838D83A98D15
:1015F000BA8DED91FC9111970284F385E02DCD0118
:101600000995512CD12CC12CEA2DF0E0FA87E987FD
:101610002B2D30E03C872B87A401440D511D47FC46
:101620005A95588F4F8B69817A81660D711D67FCC1
:101630007A957E876D877989C71608F051CF2C2D52
:1016400030E04D815E81420F531FA985BA854A9FC4
:10165000C0014B9F900D5A9F900D1124FC01E80D85
:10166000F91DF88BEF87852D612C4F89588D420F1E
:10167000531F5E8B4D8B671408F050C04424439475
:10168000480E877041F4C1010196EB89FC89E20D97
:10169000F31DD4901C01D7FE19C0A98DBA8DED9110
:1016A000FC91662D70E0B1E0BB1219C0AB1217C0FF
:1016B0002D853E85620F731F0484F585E02D2F81F3
:1016C00038854D895E89898D9A8D0995DD0C6394E5
:1016D000842DD1CF1E821D821C821B8288CF4B811C
:1016E0005C81640F751FAB85BC856A9FC0016B9FD1
:1016F000900D7A9F900D112469817A81680F791F6E
:101700000684F785E02DEF80F88409851A859D0110
:101710004F855889898D9A8D0995D8CF570CC394D8
:101720008ACF6A960FB6F894DEBF0FBECDBFDF91A9
:10173000CF911F910F91FF90EF90DF90CF90BF90CE
:10174000AF909F908F907F906F905F904F903F9061
:101750002F9008958F929F92AF92CF92EF92FF9227
:101760000F931F93CF93DF93EC01262F898D9A8DD2
:10177000009709F051C06A30D1F41D861C868D890E
:1017800048E0849F900111248E859F85820F931FCE
:101790009F878E8781E090E0DF91CF911F910F911D
:1017A000FF90EF90CF90AF909F908F9008956D3005
:1017B00089F3CC88AD888F898823C1F08C859D857D
:1017C00036E0C39E800D911D112448855985481728
:1017D000590764F44E855F851D861C8638E0A39EFC
:1017E000C0011124840F951F9F878E87EA88FB888C
:1017F000088919894E855F856C857D85CE010E949B
:1018000085092C898C859D8546E0249F800D911D3E
:1018100011249D878C87BECF6A3069F41D861C8693
:10182000FC013896E4912D898E859F85E29F800D7D
:10183000911D1124ADCF6D3009F4ACCFFC0134966D
:101840003491631708F4A6CF3296E491E61708F4B2
:10185000A1CFFC01329685909490462F431B342FE4
:1018600047E0349F800C911C1124F401329634918E
:101870003196E4913323A9F1EE2399F1CC88F40158
:101880003596E491AD884F89442301F10E2E000C6A
:10189000FF0BE30FF11DCE9EA001CF9E500D112432
:1018A0006C857D85460F571F688579856417750798
:1018B0006CF44E855F851D861C86FC013896E4918C
:1018C000AE9E400D511D11245F874E87EA88FB882C
:1018D000088919894E855F856C857D85CE010E94BA
:1018E0008509F4013496E4912C898C859D85E29FCD
:1018F000800D911D11248DCF682F82E792E00C940A
:10190000AA0B0F931F93CF93DF938C01D0E0C0E01D
:10191000F801EC0FFD1F6491662341F082E792E02D
:101920000E94AA0B892B11F02196F2CFCE01DF91F4
:10193000CF911F910F9108956F927F928F929F92F6
:10194000AF92BF92CF92DF92EF92FF920F931F93CD
:10195000CF93DF93EC016B015A0139014801E88113
:10196000F9810284F385E02D0995E881F9810288E7
:10197000F389E02D87019301A501B601CE010995F8
:10198000A501480D591D41505109E881F98102888E
:10199000F389E02D9301B601CE010995E881F98123
:1019A0000088F189E02D9401A501B601CE010995C9
:1019B000C60CD71CB60161507109E881F981008815
:1019C000F189E02D9401A501CE010995E881F98105
:1019D0000688F789E02DCE01DF91CF911F910F91FD
:1019E000FF90EF90DF90CF90BF90AF909F908F903F
:1019F0007F906F9009946F927F928F929F92AF9297
:101A0000BF92CF92DF92EF92FF920F931F93CF93EB
:101A1000DF935C01EB016A01490138018701DC01B8
:101A2000ED91FC916217730719F5641675062CF099
:101A3000962D872D3A01C92ED82E960126193709E1
:101A40002F5F3F4F048CF58DE02DA301BE01C50132
:101A50000995DF91CF911F910F91FF90EF90DF904B
:101A6000CF90BF90AF909F908F907F906F90089590
:101A70004615570591F42617370724F0892D4B0199
:101A8000C22FD82F9E01281939092F5F3F4F068C8E
:101A9000F78DE02DA601B401DACF0284F385E02DA5
:101AA0000995D501ED91FC910488F589E02D83011C
:101AB0009401A601BE01C5010995D501ED91FC91E6
:101AC0000688F789E02DC501DF91CF911F910F9115
:101AD000FF90EF90DF90CF90BF90AF909F908F904E
:101AE0007F906F900994EF92FF920F931F93DC0108
:101AF0001A960D911C911B9718962D913C91199750
:101B0000ED91FC9100A0F1A1E02D7B0150E040E0BF
:101B100070E060E009951F910F91FF90EF9008959C
:101B20004F925F926F927F928F929F92AF92BF92ED
:101B3000CF92DF92EF92FF920F931F93CF93DF9399
:101B40006C012B015A0139014801DC01ED91FC9136
:101B50000284F385E02D0995E201640C751CD60121
:101B6000ED91FC91C615D7055CF40088F189E02D54
:101B700087019401A501BE01C60109952196EFCF09
:101B80000688F789E02DC601DF91CF911F910F9153
:101B9000FF90EF90DF90CF90BF90AF909F908F908D
:101BA0007F906F905F904F9009948F929F92AF9229
:101BB000BF92CF92DF92EF92FF920F931F93CF933A
:101BC000DF93EC015B014A016901E881F98102843C
:101BD000F385E02D099595012C0D3D1D215031090E
:101BE000E881F9810488F589E02D78018401A40158
:101BF000B501CE010995E881F9810688F789E02DC4
:101C0000CE01DF91CF911F910F91FF90EF90DF9068
:101C1000CF90BF90AF909F908F9009948F929F929A
:101C2000AF92BF92CF92DF92EF92FF920F931F93EA
:101C3000CF93DF93EC015B014A0169017801E881F0
:101C4000F9810284F385E02D0995C80CD91C860121
:101C500001501109E881F9810488F589E02D950189
:101C6000A401B501CE010995E881F9810688F789BB
:101C7000E02DCE01DF91CF911F910F91FF90EF905A
:101C8000DF90CF90BF90AF909F908F900994EF928C
:101C9000FF920F931F93DC01ED91FC9100A0F1A145
:101CA000E02D09951F910F91FF90EF9008950F93EC
:101CB0001F93DC01ED91FC91068CF78DE02D0995C9
:101CC0001F910F9108950F931F93DC01ED91FC91EB
:101CD000048CF58DE02D09951F910F910895DC017D
:101CE000ED91FC910084F185E02D09943F924F9293
:101CF0005F926F927F928F929F92AF92BF92CF929C
:101D0000DF92EF92FF920F931F93CF93DF935C01CB
:101D10007B014A016901390187E0680E711C93E07B
:101D2000759467949A95E1F72B01400E511E10E0CF
:101D300000E0312CD0E0C0E0CE0187709927330C51
:101D4000892B59F4FE0183E0F595E7958A95E1F733
:101D5000E00FF11FE80DF91D349037FE0AC021E0B5
:101D600030E0A701B5016C0F7D1F82E792E00E9471
:101D70006F0E2196CC16DD06F9F68FEFE81AF80AF9
:101D8000060D171DE414F504A9F6DF91CF911F91FC
:101D90000F91FF90EF90DF90CF90BF90AF909F900A
:101DA0008F907F906F905F904F903F9008952F920B
:101DB0003F924F925F926F927F928F929F92AF92DB
:101DC000BF92CF92DF92EF92FF920F931F93CF9328
:101DD000DF9300D000D000D0CDB7DEB73C016A0160
:101DE0003E832D83FC82EB825801A41AB50AB7FE0C
:101DF00003C0B194A194B1088D809E80861A970A81
:101E000097FE03C09194819491088A149B045CF01E
:101E1000902F812F0D811E819D838E839C2D8D2D72
:101E20006B01692F782F0C151D055CF09D818E814B
:101E30007E836D83692F782F902F812F8601C92E85
:101E4000D82E1601201A310A2B012D813E81421A0B
:101E5000530A57FE03C0519441945108710137FE53
:101E600003C03FEFE31AF30AF594E7948D819E8156
:101E7000861797075CF5A1E0B0E0BA83A983C01686
:101E8000D1064CF1D301ED91FC910484F585E02D50
:101E90002B813C81A8016D817E818A149B041CF0FA
:101EA0004D815E81B801C3010995E418F508F7FE7C
:101EB0000AC02D813E8189819A81280F391F3E8376
:101EC0002D83E20CF31C0F5F1F4FD9CF2FEF3FEF95
:101ED0003A832983D4CF26960FB6F894DEBF0FBE7F
:101EE000CDBFDF91CF911F910F91FF90EF90DF90C9
:101EF000CF90BF90AF909F908F907F906F905F90AA
:101F00004F903F902F900895089508958CBD9DBDEA
:101F10000895DC0150E0E1E9F0E081E0861730F45B
:101F20009491490F511D8F5F3196F8CF633038F08F
:101F3000CD0183709927892B11F44F5F5F4F9D016D
:101F40002D5F3F4F36952795369527956DE671E0C5
:101F5000A69FC001A79F900DB69F900D11240197D9
:101F6000820F931F840F951F0895EF92FF920F9396
:101F70001F93CF93DF93EC0188814A81698190E0C0
:101F80000E94890F9C01A8E1B0E00E942A242B81C5
:101F90007B018C01E20EF11C011D111DA8019701AE
:101FA000ACE3B0E00E941F242C817B018C01E20E87
:101FB000F11C011D111DA80197010E941F24AB01F6
:101FC000BC019D81892F90E0B0E0A0E080589C4B3F
:101FD000A249B74C8A019B01080F191F2A1F3B1FFA
:101FE000C901B801DF91CF911F910F91FF90EF9040
:101FF000089520919901260F3327331F213231058F
:10200000ECF420913C02FC0190E080E0243069F087
:1020100082E00895A09199012191AC0147585E4F4B
:10202000A40FB52FB11D2C930196861798F38091BC
:102030009901680F6093990180E0089581E0089507
:1020400010923C0281E080933B021092160261E004
:1020500082E10E94230661E083E10E942306E9EB0E
:10206000F0E080818E7F808380818D7F808388E413
:102070008093B80085E48093BC0008951092F50128
:102080001092F40110924302109265020E942010F7
:102090008EEC95E09093F1018093F0018FEC95E048
:1020A0009093EF018093EE010895CF93DF9391E039
:1020B000909378018823B9F0C091B800D091BA000C
:1020C0008091BC008A7B8093BC0060E082E10E942A
:1020D000230660E083E10E9423060E942010D09333
:1020E000BA00C093B800DF91CF9108958F929F926C
:1020F000AF92BF92CF92DF92EF92FF920F931F9316
:10210000CF93DF93D0916502D13208F0D7C0182F5A
:10211000C09164020E9482066B017C0180913C02A6
:1021200081116BC082E080933C0210933B028FEFE1
:1021300080933A0210923902D0933802A4E4B2E0BC
:10214000E8E1F2E080E0D81391C01092170280918C
:102150001702CC0FC82BC093170280911602813052
:1021600009F088C0109216020E9482066B017C0161
:10217000809117028093BB0080913E0290913F02B4
:10218000A0914002B0914102892B8A2B8B2BA1F0A8
:102190000E94820600913E0210913F02209140026F
:1021A000309141026C197D098E099F0906171707A6
:1021B0002807390708F442C08091BC0083FDD8CFBE
:1021C00085EC8093BC000E9482066B017C018091AB
:1021D0003C02823009F450C080913A028F3F09F4EA
:1021E0006FC080913A02803209F46CC080913A024B
:1021F000803309F469C084E026C080913E0290914A
:102200003F02A0914002B0914102892B8A2B8B2B77
:1022100009F484CF0E94820680903E0290903F0293
:10222000A0904002B09041026C197D098E099F096F
:1022300086169706A806B90608F070CF80913D0271
:102240000E94551085E01092430210926502109290
:102250004202DF91CF911F910F91FF90EF90DF909D
:10226000CF90BF90AF909F908F9008959D91919344
:102270008F5F69CF85EEA5CF80913E0290913F029E
:10228000A0914002B0914102892B8A2B8B2B09F43B
:102290009ECF0E94820600913E0210913F02209143
:1022A0004002309141026C197D098E099F09061781
:1022B00017072807390708F08ACFC0CF81E0C3CFBE
:1022C00080E0C1CF82E0BFCF83E0BDCFE091F501D8
:1022D0008091F401E81730F4F0E0EA50FE4F80817D
:1022E00090E008958FEF9FEF08959091F501809110
:1022F000F4012FEF3FEF981748F4E92FF0E0EA5090
:10230000FE4F208130E09F5F9093F501C901089551
:102310008091F4019091F501891B990B0895CF925A
:10232000DF92EF92FF920F931F93CF93DF937C0185
:10233000CB018A0120914202222389F0EB016B013B
:10234000C40ED51ECC15DD0569F06991D701ED915C
:10235000FC910190F081E02DC7010995F3CF642F26
:102360000E94F90FC801DF91CF911F910F91FF904B
:10237000EF90DF90CF900895CF93DF931F92CDB76A
:10238000DEB76983209142022223F9F02091650291
:10239000203258F021E030E0FC013383228390E0CA
:1023A00080E00F90DF91CF91089580914302E82F54
:1023B000F0E0EC5BFD4F998190838F5F8093430247
:1023C0008093650281E090E0ECCF61E0CE01019660
:1023D0000E94F90FF7CF81E00C947610EF92FF92F4
:1023E0000F931F93CF93DF937C01C62F80918F02B1
:1023F00090919002009709F459C02091930231E026
:1024000030934202209364021092430210926502BC
:10241000DC01ED91FC910190F081E02D60E00995E7
:102420008701EE24E394F12CD1E0C15080918F021A
:1024300090919002CF3F91F1B0E2EB16F104D8F009
:102440000E94EB1180918F02909190022091930253
:10245000D0934202209364021092430210926502CC
:10246000DC01ED91FC910190F081E02D60E0099597
:10247000EE24E394F12C80918F0290919002F80168
:102480006491DC01ED91FC910190F081E02D0995C2
:10249000BFEFEB1AFB0A0F5F1F4FC7CFDF91CF9142
:1024A0001F910F91FF90EF900C94EB11E0919F0220
:1024B000F091A00290818091A5028095892380836C
:1024C0008701C15008F438C0F801849120918D0231
:1024D00030918E02232B29F00E9468090F5F1F4F55
:1024E000F0CF28E030E040E8E0919B02F0919C02C0
:1024F0009091A302582F5423D9F05081952B9083AB
:10250000E0919D02F0919E0290815091A402952B42
:102510009083E0919D02F0919E0250819091A402DF
:10252000909595239083469521503109E9F6D6CFB1
:10253000508190959523E3CFDF91CF911F910F911B
:10254000FF90EF9008951F93CF93DF93EC018D8D53
:102550009E8D009721F1162F29A131E03093420280
:10256000209364021092430210926502DC01ED9107
:10257000FC910190F081E02D60E009958D8D9E8D9C
:10258000DC01ED91FC910190F081E02D612F099526
:102590008D8D9E8DDF91CF911F910C94EB11ADA588
:1025A000BEA59C918BA9809589238C938B8D9C8D46
:1025B000892B31F0862FDF91CF911F910C94680900
:1025C00028E030E080E8A9A5BAA599A9462F4823BC
:1025D000C1F04C91942B9C93ABA5BCA59C914AA9AE
:1025E000942B9C93ABA5BCA54C919AA99095942350
:1025F0009C9386952150310931F7DF91CF911F913E
:1026000008954C9190959423E6CFDF92EF92FF923C
:102610000F931F93CF93DF9380918F02909190023D
:10262000892B09F4A5C02091A7023091A8024091FE
:10263000A9025091AA0260E074E284EF90E00E9447
:10264000592420513109410951095695479537952B
:1026500027952093B80064E080E49BE00E94EE118F
:1026600080917602909177028034910509F097C0AD
:1026700060E282E792E00E94A31260917602615EBE
:1026800082E792E00E94A3122091780230917902B1
:10269000C901079697FD079633E0959587953A957A
:1026A000E1F72091760230917702829F8001839F2B
:1026B000100D929F100D1124C0919102D0919202A1
:1026C00080918F02909190020C0F1D1F009709F4CA
:1026D00098C02091930231E030934202209364022B
:1026E0001092430210926502DC01ED91FC91019081
:1026F000F081E02D60E40995EE24E394F12CDD24D3
:10270000D39480918F02909190020C171D0709F4C9
:102710004FC0B0E2EB16F104D8F00E94EB118091AB
:102720008F029091900220919302D09242022093C6
:1027300064021092430210926502DC01ED91FC915B
:102740000190F081E02D60E40995EE24E394F12CF2
:1027500080918F02909190026991DC01ED91FC9142
:102760000190F081E02D0995BFEFEB1AFB0AC9CF6C
:1027700080918D0290918E02892B31F08091B00270
:102780009091B1020E94860FE091A102F091A20205
:1027900090818091A6028095892380835CCF60E040
:1027A00082E792E00E94A31260917602615068CFA6
:1027B0000E94EB1180918F0290919002892B09F475
:1027C00061C02091AB023091AC024091AD025091BA
:1027D000AE0260E074E284EF90E00E945924205140
:1027E0003109410951095695479537952795209309
:1027F000B800DF91CF911F910F91FF90EF90DF9084
:102800000895E0919F02F091A00280819091A5022D
:10281000892B80830C171D0769F2899120918D0205
:1028200030918E02232B19F00E946809F3CF28E023
:1028300030E040E8E0919B02F0919C029091A3026D
:10284000582F5423D9F05081952B9083E0919D020D
:10285000F0919E0290815091A402952B9083E0917B
:102860009D02F0919E0250819091A4029095952333
:102870009083469521503109E9F6CCCF508190954F
:102880009523E3CFE091A102F091A2028081909183
:10289000A602892B8083ADCF1F93CF93DF93EC01EA
:1028A000162F8D8D9E8D892BB1F12DA93EA94FA993
:1028B00058AD60E074E284EF90E00E94592420510A
:1028C0003109410951095695479537952795209328
:1028D000B80066EA111167EACE010E94A3128D8D3D
:1028E0009E8D892B41F129AD3AAD4BAD5CAD60E0D9
:1028F00074E284EF90E00E9459242051310941098B
:10290000510956954795379527952093B800DF9143
:10291000CF911F9108958B8D9C8D892B21F08EADC9
:102920009FAD0E94860FEFA5F8A990818CA9809594
:1029300089238083CECFEFA5F8A980819CA9892B1C
:102940008083E5CFCF93DF93EC018B818823A9F0BF
:1029500089819A81288131E0309342022093640278
:1029600010924302109265020E94EB1191E08111D6
:1029700090E0892FDF91CF9108950E943E1081E071
:102980008B83CE010E94A214982F8111E1CFF1CF49
:1029900090E080E008951F93CF93DF93DC011496BD
:1029A000ED91FC91E417F50710F490E01FC0122F91
:1029B000EA01FC0181819281208131E03093420261
:1029C000209364021092430210926502DC01ED91A3
:1029D000FC910280F381E02D0995C817D90729F7EA
:1029E000812F0E94761091E08111DFCF892FDF9136
:1029F000CF911F9108952F923F924F925F926F92C5
:102A00007F928F929F92AF92BF92CF92DF92EF927E
:102A1000FF920F931F93CF93DF935C011B016A0119
:102A2000F12CE12CD50114968D919C9186010E1903
:102A30001F098017910708F48C01F501D0810E94CD
:102A400082062B013C0180913C02811172C0C02F93
:102A5000013208F0C0E2F1E0F0933C0221E0C6014F
:102A6000801B910BE816F90608F420E020933B0246
:102A70008FEF80933A02109239028C0F80933802C4
:102A8000A1E0A093170280911702DD0FD82BD093FD
:102A9000170280911602813009F090C01092160240
:102AA0000E9482062B013C01809117028093BB009B
:102AB00080913E0290913F02A0914002B09141026C
:102AC000892B8A2B8B2BA1F00E94820620913E023B
:102AD00030913F02409140025091410264197509C2
:102AE00086099709261737074807590708F442C08F
:102AF0008091BC0083FDD8CFB5ECB093BC000E94A0
:102B000082062B013C0180913C02813009F45AC0BD
:102B1000809139028C1710F4C0913902A8E1B2E01B
:102B2000E6EFF1E080E08C1751F19D9191938F5F7A
:102B3000FACF80913E0290913F02A0914002B09165
:102B40004102892B8A2B8B2B09F47DCF0E948206B0
:102B500020913E0230913F0240914002509141024B
:102B60006419750986099709261737074807590711
:102B700008F069CF80913D020E945510C0E010928C
:102B8000F501C093F401C017110609F057C04101C7
:102B90008E0C9F1CE401CE018819990980179107BA
:102BA00098F5D50111968D919C91DC01ED91FC91E8
:102BB0000284F385E02D09958993EDCFE5EEE0934E
:102BC000BC009DCF80913E0290913F02A0914002B7
:102BD000B0914102892B8A2B8B2B09F494CF0E9450
:102BE000820620913E0230913F0240914002509176
:102BF000410264197509860997092617370748079E
:102C0000590708F080CFB6CFE00EF11EEC14FD049A
:102C100008F408CF81E0DF91CF911F910F91FF90D1
:102C2000EF90DF90CF90BF90AF909F908F907F906C
:102C30006F905F904F903F902F90089580E0EBCF82
:102C4000CF93DF9300D0CDB7DEB78FE08A8321E04A
:102C500041E050E0BE016E5F7F4F8091F2019091A4
:102C6000F3010E94CB1441E050E0BE016F5F7F4F43
:102C70008091F2019091F3010E94FB1489810F90E1
:102C80000F90DF91CF910895EF92FF920F931F93D2
:102C9000CF93DF93CDB7DEB72A970FB6F894DEBF98
:102CA0000FBECDBF8C01CE0101967C0188E0F701FB
:102CB00011928A95E9F7F80135812AE0832F622F76
:102CC0000E943924982F880F890F880F830F8A83D9
:102CD0003481832F0E943924982F880F890F880F01
:102CE000830F8B833381832F0E943924982F880F81
:102CF000890F880F830F8C8380814281618190E0EE
:102D00000E94890F069667E070E00E9445248111B9
:102D100001C087E08D83F80132812AE0832F622F82
:102D20000E943924982F880F890F880F830F8E8374
:102D30003181832F0E943924982F880F890F880FA3
:102D4000830F8F833081832F0E943924982F880F1F
:102D5000890F880F830F888721E048E050E0B70192
:102D60008091F2019091F3010E94CB140E942016F1
:102D70009FE099878F778A8721E042E050E0BE018B
:102D8000675F7F4F8091F2019091F3010E94CB1415
:102D90002A960FB6F894DEBF0FBECDBFDF91CF915C
:102DA0001F910F91FF90EF900895EF92FF920F9374
:102DB0001F93CF93DF9300D000D000D01F92CDB7E8
:102DC000DEB78C011982E090F201F090F30120E06F
:102DD00041E050E0BE016F5F7F4FC7010E94CB14FE
:102DE000882341F047E050E0BE016F5F7F4FC7018D
:102DF0000E94FB14E981EF77FA81FB805D814E81AF
:102E00004F778F81282F30E094E0359527959A955C
:102E1000E1F7922F990F990F291B220F280FD80144
:102E20002C93842F90E024E0959587952A95E1F7DF
:102E3000982F990F990F891B880F840F11968C93E7
:102E40001197652F70E034E0759567953A95E1F735
:102E5000862F880F880F681B660F650F12966C937C
:102E600012974F2D50E064E0559547956A95E1F72C
:102E7000842F880F880F481B440F4F0D13964C93D7
:102E800013972F2F30E074E0359527957A95E1F769
:102E9000822F880F880F281B220F2F0F14962C9338
:102EA00014978E2F90E0F4E095958795FA95E1F7C9
:102EB000982F990F990F891B880F8E0F15968C9359
:102EC000C80127960FB6F894DEBF0FBECDBFDF91C5
:102ED000CF911F910F91FF90EF900895CF92DF92C5
:102EE000EF92FF920F931F93CF93DF93CDB7DEB78F
:102EF000A1970FB6F894DEBF0FBECDBF282F30E0EC
:102F000050E040E019A28E010F5D1F4F8AE0C82EED
:102F1000D12CE12CF12CCA01B901A70196010E9424
:102F20005924605DF80162938F0121153105410537
:102F3000510589F790E080E0309761F00190002022
:102F4000E9F73197AF01401B510BB80182E792E0DE
:102F50000E94E506A1960FB6F894DEBF0FBECDBF66
:102F6000DF91CF911F910F91FF90EF90DF90CF9065
:102F70000895CF93C82F8A3018F480E30E947C0C08
:102F80008C2FCF910C946E1720917802309179029A
:102F9000C901079697FD079623E0959587952A9591
:102FA000E1F72091760230917702829FA001839F02
:102FB000500D929F500D112470E060E080919102BD
:102FC000909192020C94AB25DF92EF92FF920F93B7
:102FD0001F93CF93DF938C01D62ED42FC22F0E9444
:102FE000C41781E0809386028093870210927F024B
:102FF00010927E021092810210928002C8010E94FB
:10300000810C82E08093860280938702CC2309F4AE
:103010008AC0EE24E394F12C04E110E022E230E0D7
:1030200040E150E068E070E082E792E00E94900D9D
:1030300010928502109284021092830210928202F2
:103040008AE090E090937F0280937E0202E110E09C
:1030500010938102009380028D2D0E94B91781E0A8
:1030600090E09093850280938402909383028093F2
:1030700082028CE290E090937F0280937E02109314
:103080008102009380028AE30E947C0CC11117C068
:10309000EE24E394F12C04E110E022E230E040E180
:1030A00050E06CE370E082E792E00E94900D109295
:1030B00085021092840210928302109282028EE3A3
:1030C00090E090937F0280937E0282E190E0909363
:1030D0008102809380028D2F0E94B91781E090E0D9
:1030E000909385028093840290938302809382025E
:1030F000809386028093870210927F0210927E0254
:1031000084E390E090938102809380028AE790E0CC
:103110000E94810CDF91CF911F910F91FF90EF9052
:10312000DF900C94051381E090E0909385028093EA
:103130008402909383028093820282CFEF92FF9267
:103140000F931F930E94C41781E08093860280939F
:1031500087028CE190E090937F0280937E0286E16B
:1031600090E0909381028093800280E790E00E943B
:10317000810C88E290E090937F0280937E0282E24D
:1031800090E0909381028093800288E690E00E9414
:10319000810CEE24E394F12C0CE010E028E730E001
:1031A00040E350E064E070E082E792E00E949C0C13
:1031B0008091E20124E78202C001112464E170E001
:1031C0000E944524662361F09B01332708E010E04C
:1031D00042E350E066E070E082E792E00E94900DEA
:1031E0001F910F91FF90EF900C9405131F93CF93B5
:1031F000DF93EC01162F0E940924181739F0612F74
:10320000CE01DF91CF911F910C941124DF91CF91CA
:103210001F9108950E94A62585ED8093BC008091A2
:103220003E0290913F02A0914002B0914102079668
:10323000A11DB11D23E0B695A795979587952A9571
:10324000D1F72091BC0024FD03C010923C020895E8
:1032500040913E0250913F026091400270914102C4
:10326000452B462B472B69F30097A105B10541F08B
:103270002AE22A95F1F700C00197A109B109E1CF2F
:1032800080913D020C9455101F920F920FB60F9231
:1032900011242F933F938F939F93AF93BF9380916C
:1032A000E6019091E701A091E801B091E901309128
:1032B000E50123E0230F2D3758F50196A11DB11D1F
:1032C0002093E5018093E6019093E701A093E80144
:1032D000B093E9018091EA019091EB01A091EC019A
:1032E000B091ED010196A11DB11D8093EA0190936B
:1032F000EB01A093EC01B093ED01BF91AF919F91D1
:103300008F913F912F910F900FBE0F901F901895A6
:1033100026E8230F0296A11DB11DD2CF1F920F9256
:103320000FB60F9211242F933F934F935F936F9398
:103330007F938F939F93AF93BF93EF93FF9380916E
:10334000B900887F803609F44AC0F0F5883209F464
:10335000A7C018F5803109F49BC0B8F4882309F49C
:10336000F9C0883009F494C0FF91EF91BF91AF91FB
:103370009F918F917F916F915F914F913F912F918D
:103380000F900FBE0F901F901895883109F488C0D8
:10339000803251F780933A0214C0803409F49DC002
:1033A00040F48033B9F38833F9F680933A0285EC20
:1033B000B0C0803509F485C0883509F496C08834DA
:1033C00099F60E940C19D0CF883909F48CC038F5D1
:1033D000883729F050F4883611F0803729F683E0D9
:1033E00080933C021092BB0157C0883809F47BC01F
:1033F000803919F0803809F0B7CF8091BB01803255
:1034000008F071C0E091BB0181E08E0F8093BB0199
:103410008091BB00F0E0E556FE4F80833DC0803BCD
:1034200039F0E0F4803A09F479C0883A09F09CCF89
:1034300084E080933C0210929A0110929901E091ED
:10344000F001F091F10109958091990181110FC06E
:1034500081E0809399011092790109C0803C09F4C0
:10346000A6CF883C09F4A3CF883B09F07DCFE0913B
:103470009A0181E08E0F80939A01F0E0E758FE4FA9
:1034800080818093BB0090919A018091990129C01D
:10349000809117028093BB0085EC8093BC0064CFC1
:1034A0009091390280913802981758F5E0913902CD
:1034B00081E08E0F80933902F0E0E85EFD4F80815D
:1034C000E9CFE091390281E08E0F8093390280913B
:1034D000BB00F0E0E85EFD4F80839091390280915F
:1034E00038029817C8F285E8D8CFE091390281E018
:1034F0008E0F809339028091BB00F0E0E85EFD4FB3
:10350000808380913B0281115CCF81E08093160221
:1035100084EA8093BC0010923C0226CF85EC809315
:10352000BC0010923C028091BB01803230F4E091EB
:10353000BB01F0E0E556FE4F10826091BB0170E0E8
:10354000E091EE01F091EF018BE991E00995109285
:10355000BB010ACF10923A0234CFFC019081905304
:103560009A3008F090E0818180532AE0929F800D8C
:10357000112408950C940924A6E6B2E013961C9237
:103580001E92129748EE53E060E070E014964D935F
:103590005D936D937C93179784E291E011969C93D1
:1035A0008E93E2E7F2E01382128220E830E0358366
:1035B000248380E490E097838683318720879387F4
:1035C0008287168A158614861786168681E0858B73
:1035D000848B2FEF3FEF338B228B318B208B878BAC
:1035E000108E128E118E86E391E091838083148E6B
:1035F000138EB68FA58F10A2178E8FEF84A385A38D
:1036000086A387A380A780E89AE1A6E0B0E085AB17
:1036100096ABA7ABB0AF80EA96E8A1E0B0E081AF8F
:1036200092AFA3AFB4AF80E586AF17AE0895CF9346
:10363000DF93CDB7DEB76B970FB6F894DEBF0FBE42
:10364000CDBF789484B5826084BD84B5816084BD2B
:1036500085B5826085BD85B5816085BD80916E0030
:10366000816080936E001092810080918100826061
:10367000809381008091810081608093810080919E
:1036800080008160809380008091B100846080938D
:10369000B1008091B00081608093B00080917A0089
:1036A000846080937A0080917A00826080937A00AF
:1036B00080917A00816080937A0080917A0080689E
:1036C00080937A001092C10061E085E00E9451066B
:1036D00061E086E00E94510662E084E00E945106AB
:1036E00062E082E00E94510662E083E00E9451069F
:1036F00082E00E94FA058C0183E00E94FA05000F27
:10370000111F082B0093BE011092BD0160E085E0FF
:103710000E94230660E086E00E9423060E943E107D
:103720008091910290919202892B11F5209178025B
:1037300030917902C901079697FD0796B3E09595F8
:103740008795BA95E1F72091760230917702AC0126
:10375000429FC001439F900D529F900D11240E94E3
:1037600081249093920280939102892B09F48FC255
:103770000E94C417209178023091790280917602DC
:1037800090917702B901213231050CF468C160547F
:10379000710977FF02C06F5F7F4F759567958255FE
:1037A000910997FD019600E410E022E530E04EE932
:1037B00057E0959587950E94760E82E0809394025B
:1037C00080918F0290919002892B09F45BC18CE368
:1037D000809393020E943E1080919A0287FD1EC042
:1037E00061E00E94510661E080919A020E942306E6
:1037F00061E070E080E090E00E94A70660E08091C8
:103800009A020E9423066AE070E080E090E00E9445
:10381000A70661E080919A020E94230680918F02A0
:1038200090919002892B09F4ECC12091A70230916C
:10383000A8024091A9025091AA0260E074E284EFCC
:1038400090E00E94592420513109410951095695AF
:103850004795379527952093B80064E08AEB95E06B
:103860000E94EE1160917802615082E792E00E941E
:10387000A31264E086EB95E00E94EE118091940221
:1038800060E1813009F064E182E792E00E94A312D6
:1038900064E082EB95E00E94EE118FE88093AF0226
:1038A00080917602909177028038910509F0C0C12D
:1038B00080917802909179028034910509F0C8C115
:1038C00080919402813009F0D6C18FE98093AF02D4
:1038D00012E16AED82E792E00E94A312612F82E773
:1038E00092E00E94A31261E882E792E00E94A31294
:1038F0006091AF0282E792E00E94A31269ED82E735
:1039000092E00E94A3128091940262E2813009F059
:1039100061EF82E792E00E94A31266E08CEA95E0F4
:103920000E94EE1180918F0290919002892B09F4F0
:10393000A4C12091AB023091AC024091AD025091F4
:10394000AE0260E074E284EF90E00E9459242051BE
:103950003109410951095695479537952795209387
:10396000B80081E090E09093850280938402909368
:103970008302809382020E94C41710927F021092E9
:103980007E0210928102109280028CE79AE00E94DF
:10399000810C0E9405138091F2019091F301009730
:1039A00011F00E941D2586E090E00E9481248C0188
:1039B00088E6D8018C9386E692E012969C938E93CB
:1039C000119713961C92139780E290E015969C93A2
:1039D0008E9314971093F3010093F2010E943E100E
:1039E00081E0F8018383C8010E94A214882309F4AE
:1039F0004FC10E94201690E0880F892F881F990BD5
:103A0000892B09F480C14BE050E067E67AE0CE01F3
:103A100001960E940024CE010A960E94AD1A8C875E
:103A2000E981E154E33108F04EC10E2E000CFF0B8A
:103A3000E45EF24E0C947B24621F631E631E761FAD
:103A4000631E601F631E631E631E591E631E631E7A
:103A5000691F741F721F631E631E631E701F6052F6
:103A6000710977FF02C06F5F7F4F75956795835728
:103A7000910997FD019600E210E023E730E04EEB5C
:103A800055E097CE61E0809198020E94510661E076
:103A9000809199020E94510680919802082E000C94
:103AA000990BFC01EC5FF44FE491F0E0EE0FFF1F87
:103AB000E051F54F259134913093A00220939F025D
:103AC000FC01E85EF44FE491E093A5028091990235
:103AD000082E000C990BFC01EC5FF44FE491F0E030
:103AE000EE0FFF1FE051F54FA591B491B093A202E4
:103AF000A093A102FC01E85EF44FE491E093A602DA
:103B00008C91E82BEC9380918D0290918E02892B01
:103B100009F434C01FB7F8948091BC01811127C00B
:103B2000EEE0FBE08491E2E2FBE09491E82FF0E02C
:103B3000EE0FFF1FEA51F54FA591B491EC91E923E7
:103B400021F461E08AE00E94230661E08AE00E949D
:103B500051068CB580618CBD8CB580648CBD61E0F4
:103B60008DE00E94510661E08BE00E945106809139
:103B7000BC018F5F8093BC011FBF2ECE61E080919E
:103B800096020E94510661E0809197020E945106C0
:103B900080919602082E000C990BFC01EC5FF44F0B
:103BA000E491F0E0EE0FFF1FE051F54F25913491C5
:103BB00030939C0220939B02FC01E85EF44FE49159
:103BC000E093A30280919702082E000C990BFC0150
:103BD000EC5FF44FE491F0E0EE0FFF1FE051F54F82
:103BE000A591B491B0939E02A0939D02FC01E85E62
:103BF000F44FE491E093A4028C91E095E823EC93D8
:103C0000EBCD80918D0290918E02892B31F08091C5
:103C1000B0029091B1020E94860FE091A102F09152
:103C2000A20290818091A60280958923808315CE7F
:103C30008036910589F480917802909179024097BD
:103C400039F480919402813029F480E18093AF02AD
:103C500012E03FCE8FEAFACF80349105C9F7809108
:103C6000780290917902809799F78091940281303F
:103C700011F480E12BCE8FEC29CEE091A102F091DE
:103C8000A20280819091A602892B80836ACEFFCF09
:103C90000E94C41710927F0210927E02109281023D
:103CA0001092800283E79AE00E94810C0E94051323
:103CB000FFCF8A81813609F4FFC08B818E3609F0EF
:103CC000FDC086E08D87CE0105960E94AD1A8E87D5
:103CD00048E050E06EE57AE0CE0101960E940024B3
:103CE000CE0101960E94AD1A8F87CE0104960E94E4
:103CF000AD1A888BCE0107960E94AD1A898BCE0132
:103D00000C960E944416F12CE12C10E000E0812C6E
:103D1000912C5401C8010E94092490E0B0E0A0E079
:103D20000E2C04C0880F991FAA1FBB1F0A94D2F73C
:103D3000882A992AAA2ABB2A0F5F1F4FF8E0EF0EA4
:103D4000F11C0430110531F78092CE019092CF0121
:103D5000A092D001B092D10184E090E00E94BA1A02
:103D60008093D30185E090E00E94BA1A082F8093D7
:103D7000C60186E090E00E94BA1A8093C50187E0F0
:103D800090E00E94BA1A182F8093C40188E090E056
:103D90000E94BA1A8093C301083128F088E080930A
:103DA000C6011092C5018091C5018C3310F01092AC
:103DB000C501183128F083E18093C4011092C3013A
:103DC0008091C3018C3310F01092C30168E572E05A
:103DD00080E090E00E94A7067CE3472E512C612CE6
:103DE000712CDD24D39422242394312CCE014296CD
:103DF0000E94D51682E00E94FA058C0183E00E94A1
:103E0000FA05000F111F082BE091BE0124E0E29F8C
:103E1000F0011124E02BE05FFE4F90810093BE0182
:103E2000911166C0F12C84E00E94FA058C01EE2409
:103E3000E394892B09F4E12C80910101E81651F0FB
:103E40000E94D9066093BF017093C0018093C101A5
:103E50009093C201E09201010E94D9068090BF01B7
:103E60009090C001A090C101B090C2016819790979
:103E70008A099B09693271058105910550F080918D
:103E80000001E81631F0E0920001EE24E394012BEA
:103E900009F0E12CE091E401E83008F07AC0F0E0AC
:103EA000EC5AF04E0C947B248C1F29220B232523E3
:103EB0005B237323A623BE2381E004CF87E002CFD8
:103EC00082E000CF8B81823711F484E0FBCE88E062
:103ED000F9CE8B81823711F483E0F4CE85E0F2CE07
:103EE00089E0F0CE8AE0EECE8BE0ECCE8CE0EACE3C
:103EF0008091BD01890F84302CF01092BD01FF2408
:103F0000F39491CF8D3F1CF08093BD018BCF109225
:103F1000BD01FF24FA9487CFFF2009F448C0D09256
:103F2000E3018091E2018F0D87FD3BC08093E201A8
:103F30008091E20185311CF084E18093E2010E94CE
:103F4000D9066093DE017093DF018093E0019093C6
:103F5000E1010E94D9066093DA017093DB0180933E
:103F6000DC019093DD018091E2018431ECF010924C
:103F7000E2011092E301D092E4011092D9010E9473
:103F8000D9066093D5017093D6018093D7019093A1
:103F9000D80180E090E0892B09F428CF0E9400002E
:103FA00020CF1092E201C4CF0E949E18F2CF8091E0
:103FB000E301882309F43EC00E94D9060091DE0186
:103FC0001091DF012091E0013091E101601B710B44
:103FD000820B930B613375478105910528F310918E
:103FE000E201111604F50E94D9068090DA01909042
:103FF000DB01A090DC01B090DD01681979098A0924
:104000009B09633271058105910570F20E94D90602
:104010006093DA017093DB018093DC019093DD0102
:1040200011501093E2018091E2018111BDCF1092F5
:10403000E301AFCF8D894CE32E8930E0849F200DC2
:10404000311D11248B891C895FE1859F100D11247E
:104050008A8990E08053984F64E670E00E9445247E
:1040600064E7869F100D1124110F5091C4018091B7
:10407000C30190E0549F800D911D1124281739072A
:1040800008F411501093D4014091C6018091C501EC
:1040900090E07CE3479F800D911D1124281739077C
:1040A00008F448C08091D301811709F43FC0D09231
:1040B000D201EE2009F440C0CE0142960E94B50F15
:1040C0004B015C018092CE019092CF01A092D00171
:1040D000B092D1011093D301F12CE12C10E000E05B
:1040E000D501C4010E2C04C0B695A7959795879568
:1040F0000A94D2F7888F998FAA8FBB8FC88CC8017A
:104100000E940924C81621F06C2DC8010E941124B8
:104110000F5F1F4F98E0E90EF11C0430110501F705
:104120006091D30184E090E00E94F61882E08093D1
:10413000D20102C01092D2018091D201813009F4E3
:10414000CFC008F464C0823009F023CF60E085E07E
:104150000E94230661E086E00E942306CE0142967B
:104160000E94B50F0091CE011091CF012091D00196
:104170003091D101812C912C540160177107820775
:10418000930730F04B015C01801A910AA20AB30A2E
:104190000E94C417D0928602D092870210927F02AA
:1041A00010927E0210928102109280028DEA9AE0B3
:1041B0000E94810C82E08093860280938702109295
:1041C0007F0210927E028EE090E0909381028093B5
:1041D0008002C501B40120E13EE040E050E00E94D1
:1041E0005924022FA30192010E945924122F002367
:1041F00009F41EC1802F0E946E1788E60E947C0C75
:10420000812F0E946E178DE60E947C0CF2C060E048
:1042100085E00E94230660E086E00E9423060E945B
:10422000C417D0928602D092870210927F02109219
:104230007E02109281021092800281E99AE00E942F
:10424000810C82E0809386028093870288E090E070
:1042500090937F0280937E0282E190E090938102AE
:10426000809380028D890E94B9178AE30E947C0C9A
:104270008E890E94B9178AE30E947C0C8F890E9464
:10428000B917D0928602D092870210927F021092C4
:104290007E0284E390E090938102809380028EE816
:1042A0009AE00E94810C8091C6010E94B9178AE3AE
:1042B0000E947C0C8091C5010E94B91789E89AE0A0
:1042C0000E94810C8091C4010E94B9178AE30E9468
:1042D0007C0C8091C3010E94B9170E94051359CE2E
:1042E00060E086E00E9423062D894CE38E8990E0F1
:1042F000DC01249FA00DB11D11249D015091C4012A
:104300008091C30190E0549F800D911D1124A81746
:10431000B90748F45091C6018091C50190E0549FBF
:10432000800D911D1124281B390B2A35310578F495
:104330002C33310508F075C061E02E31310588F16C
:1043400020EB822E24E0922EA12CB12C06C04CE250
:10435000842E99249394A12CB12C0E94D90600910B
:10436000CA011091CB012091CC013091CD01601B8D
:10437000710B820B930B681579058A059B0578F004
:104380001091C9010E94D9066093CA017093CB01B4
:104390008093CC019093CD011D251093C9016091AC
:1043A000C90185E00E9423060E94C41782E0809321
:1043B00086028093870208E010E010937F0200934A
:1043C0007E028EE090E0909381028093800285EAE5
:1043D0009AE00E94810C10937F0200937E0282E299
:1043E00090E090938102809380028EE99AE00E948F
:1043F000810CD0928602D09287028AE590E0909359
:104400007F0280937E0288E390E090938102809304
:1044100080028D890E94B9178AE30E947C0C8E89E4
:104420005ACF38E5832E32E0932EA12CB12C95CFB4
:10443000822F0E946E178DE60E947C0CC501B4018C
:10444000A30192010E945924862F0E946E1783E7D0
:10445000DBCE0E94D9060091D5011091D6012091A2
:10446000D7013091D801601B710B820B930B613324
:1044700075478105910518F01092E4018ACDFF205F
:10448000B1F08091D9012F2DFF0C330B820F932FA8
:10449000911D837099278093D9010E94D90660935A
:1044A000D5017093D6018093D7019093D801EE2067
:1044B000B1F10E94D9066093D5017093D601809323
:1044C000D7019093D8018091D9018130A1F028F0D3
:1044D0008230D9F0833081F25CCDCE0101960E940A
:1044E000D5168C818093C8018D818093C70182E0AD
:1044F0008093E4014ECD8091C6018093C8018091E4
:10450000C5018093C70184E0F3CF8091C4018093FB
:10451000C8018091C3018093C70186E0E9CF0E9462
:10452000C417D0928602D0928702E8E5F0E0F093BB
:104530007F02E0937E0210928102109280028D89A8
:104540000E94B9178AE30E947C0C8E890E94B917D9
:1045500088E0E8E0F1E0DE01119601900D928A9585
:10456000E1F7AE014F5F5F4F4A019CE0A92EB12CED
:10457000C12CA501425051098091D901C81242C0F5
:10458000EE24E394F12C0CE010E020E530E070E044
:1045900060E082E792E00E94900D109285021092F6
:1045A0008402109283021092820264E070E07093A1
:1045B0007F0260937E02B0928102A0928002D401B9
:1045C0006D917D914D016115710561F0FB010190C7
:1045D0000020E9F73197AF01461B570B82E792E0C5
:1045E0000E94E506C394BDE0AB0EB11CE4E0CE1220
:1045F000C0CF3092850220928402309283022092B2
:1046000082026BCE30928502209284023092830225
:1046100020928202CACFFF2049F08091C801885EB3
:104620008F0D68E10E9439249093C801EE2019F0A3
:1046300083E08093E40121E04091C7016091C801CB
:1046400080EE9AE00E94E417A4CCFF2049F080910C
:10465000C701845C8F0D6CE30E9439249093C701DD
:10466000EE2009F1CE010C960E94D5168091C7016B
:104670009091C8012E853D854C8549833A832B83D3
:104680009C838D831E82CE0101960E944416D09297
:10469000E4010E94D9066093D5017093D6018093FE
:1046A000D7019093D80120E04091C7016091C801E3
:1046B0008AED9AE0C7CFFF2049F08091C801885E5B
:1046C0008F0D68E10E9439249093C801EE2019F003
:1046D00085E08093E40121E04091C7016091C80129
:1046E00081ED9AE0AFCFFF2049F08091C701845C53
:1046F0008F0D6CE30E9439249093C701EE20F1F0F6
:104700006091C8016093C6018091C7018093C50183
:1047100085E090E00E94F6186091C50186E090E087
:104720000E94F618D092E4010E94D9066093D50148
:104730007093D6018093D7019093D80120E04091E7
:10474000C7016091C80188EC9AE07CCFFF2049F056
:104750008091C801885E8F0D68E10E943924909392
:10476000C801EE2019F087E08093E40121E0409138
:10477000C7016091C80183EC9AE064CFFF2049F043
:104780008091C701845C8F0D6CE30E943924909363
:10479000C701EE20F1F06091C8018091C7016093DC
:1047A000C4018093C30187E090E00E94F6186091F5
:1047B000C30188E090E00E94F618D092E4010E94C4
:1047C000D9066093D5017093D6018093D701909359
:1047D000D80120E04091C7016091C8018EEB9AE0BA
:1047E00031CF86E391E090937302809372028091BF
:1047F000910290919202009711F00C941D2508955A
:10480000FB01DC0102C005900D9241505040D8F7E9
:104810000895F999FECF92BD81BDF89A992780B588
:104820000895262FF999FECF1FBA92BD81BD20BDF4
:104830000FB6F894FA9AF99A0FBE019608950E945D
:104840002A24A59F900DB49F900DA49F800D911DCB
:1048500011240895A29FB001B39FC001A39F700DC2
:10486000811D1124911DB29F700D811D1124911D78
:104870000895991B79E004C0991F961708F0961BBC
:10488000881F7A95C9F780950895AA1BBB1B51E133
:1048900007C0AA1FBB1FA617B70710F0A61BB70BB0
:1048A000881F991F5A95A9F780959095BC01CD0155
:1048B0000895A1E21A2EAA1BBB1BFD010DC0AA1F61
:1048C000BB1FEE1FFF1FA217B307E407F50720F079
:1048D000A21BB30BE40BF50B661F771F881F991FF4
:1048E0001A9469F760957095809590959B01AC013D
:1048F000BD01CF010895EE0FFF1F0590F491E02D4B
:1049000009940F931F93CF93DF938230910510F496
:1049100082E090E0E091B402F091B50230E020E056
:10492000B0E0A0E0309799F42115310509F44AC0B0
:10493000281B390B24303105D8F58A819B816115FC
:10494000710589F1FB0193838283FE0111C04081CF
:1049500051810281138148175907E0F04817590720
:1049600099F4109761F012960C93129713961C937A
:104970003296CF01DF91CF911F910F91089500934F
:10498000B4021093B502F4CF2115310551F042174E
:10499000530738F0A901DB019A01BD01DF01F801DD
:1049A000C1CFEF01F9CF9093B5028093B402CDCF80
:1049B000FE01E20FF31F8193919322503109398355
:1049C0002883D7CF2091B2023091B302232B41F438
:1049D00020910401309105013093B3022093B2027B
:1049E00020910201309103012115310541F42DB7C9
:1049F0003EB74091060150910701241B350BE09111
:104A0000B202F091B302E217F307A0F42E1B3F0BA2
:104A10002817390778F0AC014E5F5F4F2417350730
:104A200048F04E0F5F1F5093B3024093B202819340
:104A300091939FCFF0E0E0E09CCFCF93DF9300977E
:104A4000E9F0FC01329713821282A091B402B09176
:104A5000B502ED0130E020E01097A1F42081318112
:104A6000820F931F2091B2023091B30228173907A9
:104A700009F061C0F093B302E093B202DF91CF91ED
:104A80000895EA01CE17DF07E8F54A815B819E01B0
:104A900041155105B1F7E901FB83EA834991599129
:104AA000C40FD51FEC17FD0761F480819181029638
:104AB000840F951FE90199838883828193819B8369
:104AC0008A83F0E0E0E012968D919C911397009715
:104AD000B9F52D913C911197CD010296820F931F4C
:104AE0002091B2023091B3022817390739F6309776
:104AF00051F51092B5021092B402B093B302A09394
:104B0000B202BCCFD383C28340815181840F951FF1
:104B1000C817D90761F44E5F5F4F88819981480FAC
:104B2000591F518340838A819B81938382832115FE
:104B3000310509F0B0CFF093B502E093B4029ECFF7
:104B4000FD01DC01C0CF13821282D7CF81E090E05B
:104B5000F8940C94B225DC0101C06D934150504093
:104B6000E0F7089515E0C3EAD5E004C0FE010E9415
:0E4B70007B242196C43AD107C9F7F894FFCFF1
:104B7E0001010000B60280005E0164016D01720148
:104B8E0000FF0100010000FFFF0000010001FF0017
:104B9E0000000000BC118F11C814D00588117511CA
:104BAE00661100000000AA0BE506C814840FB908B0
:104BBE00D0056F0E470E630E570ED70ED005700937
:104BCE004C1429087208900D730DFB0C9C0C526549
:104BDE006C6F6A004465736179756E6F0043656E24
:084BEE006100457869740000C4
:00000001FF
